{
  "contractName": "Exchange",
  "abi": [
    {
      "constant": true,
      "inputs": [
        {
          "internalType": "uint256",
          "name": "",
          "type": "uint256"
        }
      ],
      "name": "orders",
      "outputs": [
        {
          "internalType": "string",
          "name": "side",
          "type": "string"
        },
        {
          "internalType": "uint256",
          "name": "price",
          "type": "uint256"
        }
      ],
      "payable": false,
      "stateMutability": "view",
      "type": "function"
    },
    {
      "constant": false,
      "inputs": [
        {
          "internalType": "string",
          "name": "_side",
          "type": "string"
        },
        {
          "internalType": "uint256",
          "name": "_price",
          "type": "uint256"
        }
      ],
      "name": "addOrder",
      "outputs": [],
      "payable": false,
      "stateMutability": "nonpayable",
      "type": "function"
    },
    {
      "constant": false,
      "inputs": [],
      "name": "buyOrder",
      "outputs": [],
      "payable": false,
      "stateMutability": "nonpayable",
      "type": "function"
    }
  ],
  "bytecode": "0x608060405234801561001057600080fd5b5061064e806100206000396000f3fe608060405234801561001057600080fd5b50600436106100415760003560e01c80630a4bcbb11461004657806344f931d814610050578063a85c38ef14610115575b600080fd5b61004e6101c3565b005b6101136004803603604081101561006657600080fd5b810190808035906020019064010000000081111561008357600080fd5b82018360208201111561009557600080fd5b803590602001918460018302840111640100000000831117156100b757600080fd5b91908080601f016020809104026020016040519081016040528093929190818152602001838380828437600081840152601f19601f820116905080830192505050505050509192919290803590602001909291905050506103f3565b005b6101416004803603602081101561012b57600080fd5b8101908080359060200190929190505050610463565b6040518080602001838152602001828103825284818151815260200191508051906020019080838360005b8381101561018757808201518184015260208101905061016c565b50505050905090810190601f1680156101b45780820380516001836020036101000a031916815260200191505b50935050505060405180910390f35b60008080549050905060008090505b818110156103ef5760006001820190505b828110156103e157600081815481106101f857fe5b9060005260206000209060020201600101546000838154811061021757fe5b90600052602060002090600202016001015414801561036257506000818154811061023e57fe5b906000526020600020906002020160000160405160200180828054600181600116156101000203166002900480156102ad5780601f1061028b5761010080835404028352918201916102ad565b820191906000526020600020905b815481529060010190602001808311610299575b505091505060405160208183030381529060405280519060200120600083815481106102d557fe5b906000526020600020906002020160000160405160200180828054600181600116156101000203166002900480156103445780601f10610322576101008083540402835291820191610344565b820191906000526020600020905b815481529060010190602001808311610330575b50509150506040516020818303038152906040528051906020012014155b156103d4576000828154811061037457fe5b906000526020600020906002020160008082016000610393919061052c565b60018201600090555050600081815481106103aa57fe5b9060005260206000209060020201600080820160006103c9919061052c565b600182016000905550505b80806001019150506101e3565b5080806001019150506101d2565b5050565b6000604051806040016040528084815260200183815250908060018154018082558091505090600182039060005260206000209060020201600090919290919091506000820151816000019080519060200190610451929190610574565b50602082015181600101555050505050565b6000818154811061047057fe5b9060005260206000209060020201600091509050806000018054600181600116156101000203166002900480601f01602080910402602001604051908101604052809291908181526020018280546001816001161561010002031660029004801561051c5780601f106104f15761010080835404028352916020019161051c565b820191906000526020600020905b8154815290600101906020018083116104ff57829003601f168201915b5050505050908060010154905082565b50805460018160011615610100020316600290046000825580601f106105525750610571565b601f01602090049060005260206000209081019061057091906105f4565b5b50565b828054600181600116156101000203166002900490600052602060002090601f016020900481019282601f106105b557805160ff19168380011785556105e3565b828001600101855582156105e3579182015b828111156105e25782518255916020019190600101906105c7565b5b5090506105f091906105f4565b5090565b61061691905b808211156106125760008160009055506001016105fa565b5090565b9056fea265627a7a72315820de778436bb8bed4bf27c3513ebbc8aef868055aac0b14e6be37f8a98311d8d1464736f6c63430005100032",
  "source": "pragma solidity ^0.5.0;\r\n\r\n\r\ncontract Exchange{\r\n\tstruct order{\r\n\t\tstring side;\r\n\t\tuint price;\r\n\t}\r\n\r\n\torder[] public orders;\r\n\r\n\tfunction addOrder(string memory _side, uint _price) public {\r\n\t\torders.push(order(_side,_price));\r\n\t}\r\n    function buyOrder()public {\r\n       uint len = orders.length;\r\n       for(uint i=0; i<len;i++){\r\n           for(uint j=i+1;j<len;j++){\r\n               if(orders[i].price==orders[j].price\r\n               && keccak256(abi.encodePacked((orders[i].side))) != keccak256(abi.encodePacked((orders[j].side)))){\r\n                   delete orders[i];\r\n                   delete orders[j];\r\n               }\r\n           }\r\n       }\r\n    \r\n        \r\n    }\r\n}\r\n\t\r\n\t\r\n\r\n\t\r\n",
  "sourcePath": "C:/Users/rj/Desktop/solidity_task/contracts/Exchange.sol",
  "compiler": {
    "name": "solc",
    "version": "0.5.16+commit.9c3226ce.Emscripten.clang"
  },
  "schemaVersion": "3.2.3",
  "updatedAt": "2021-04-20T21:16:23.008Z",
  "networkType": "ethereum",
  "devdoc": {
    "methods": {}
  },
  "userdoc": {
    "methods": {}
  }
}